package fixtures

// nolint
const (
	BTCBlockWithoutTransactions = `{"jsonrpc":"2.0","id":"85fcb6a6-7767-4f94-ac2b-de866c53e267","result":{"bits":"1701e605","chainwork":"000000000000000000000000000000000000000104e74b875019ccdbc9d2d660","confirmations":1,"difficulty":148258433855481.3,"hash":"00000000000000000000845c14e9d41056cf37f2984c686fe0b7beb1b8e5c0c4","height":931279,"mediantime":1767789535,"merkleroot":"9e72441d54e02e00b0bc57228dbbc08dad8fe58836e4c46af3672b4d37986772","nTx":3059,"nonce":2950102725,"previousblockhash":"00000000000000000000fe63a464319078b834b64a3748c137985324b500470d","size":1691604,"strippedsize":767374,"target":"00000000000000000001e6050000000000000000000000000000000000000000","time":1767792394,"tx":["50e2a04b362278269fd7e7ee56febf2163dca2cb03a46982a3bdcfb16b27b151","42817bca63a2e1594f62db5306323159c6804f95a585981e07b013d77c4139dc","452c03dca73369faffdac84a14b9eb34f49aff33691b26c8a449335a9f5c74c9","04ca822099fcab0dafd41f8e0403f58b36adcf6fad2767c84612ac925c3db4ba","ce84482ce65fbdb06095276aec8329176efad90359094b1b48cb693852e2dd5e"],"version":537313280,"versionHex":"2006c000","weight":3993726}}`
	BTCBlockWithTransactions    = `{"jsonrpc":"2.0","result":{"hash":"00000000000000000000845c14e9d41056cf37f2984c686fe0b7beb1b8e5c0c4","confirmations":1,"height":931279,"version":537313280,"versionHex":"2006c000","merkleroot":"9e72441d54e02e00b0bc57228dbbc08dad8fe58836e4c46af3672b4d37986772","time":1767792394,"mediantime":1767789535,"nonce":2950102725,"bits":"1701e605","target":"00000000000000000001e6050000000000000000000000000000000000000000","difficulty":148258433855481.3,"chainwork":"000000000000000000000000000000000000000104e74b875019ccdbc9d2d660","nTx":3059,"previousblockhash":"00000000000000000000fe63a464319078b834b64a3748c137985324b500470d","strippedsize":767374,"size":1691604,"weight":3993726,"tx":[{"txid":"50e2a04b362278269fd7e7ee56febf2163dca2cb03a46982a3bdcfb16b27b151","hash":"1efb039e2ead25e0344f069ee906b4b9023bc9ccf68301b185f65d32fc9bf064","version":2,"size":378,"vsize":351,"weight":1404,"locktime":0,"vin":[{"coinbase":"03cf350e040a5f5e692f466f756e6472792055534120506f6f6c202364726f70676f6c642ffabe6d6d16f9cc4588d834f41fdefbc16e755ac60dfae164beea52be4e01397e344179b401000000000000001ce2878f0543010000000000","txinwitness":["0000000000000000000000000000000000000000000000000000000000000000"],"sequence":4294967295}],"vout":[{"value":3.14996546,"n":0,"scriptPubKey":{"asm":"0 7086320071974eef5e72eaa01dd9096e10c0383483855ea6b344259c244f73c2","desc":"addr(bc1qwzrryqr3ja8w7hnja2spmkgfdcgvqwp5swz4af4ngsjecfz0w0pqud7k38)#y9upg3rz","hex":"00207086320071974eef5e72eaa01dd9096e10c0383483855ea6b344259c244f73c2","address":"bc1qwzrryqr3ja8w7hnja2spmkgfdcgvqwp5swz4af4ngsjecfz0w0pqud7k38","type":"witness_v0_scripthash"}},{"value":0E-8,"n":1,"scriptPubKey":{"asm":"OP_RETURN aa21a9ed09cbb27317cffe35a1394226242d6e825d860adb2b10bd3b18a77f34d978fe4a","desc":"raw(6a24aa21a9ed09cbb27317cffe35a1394226242d6e825d860adb2b10bd3b18a77f34d978fe4a)#gvttcmea","hex":"6a24aa21a9ed09cbb27317cffe35a1394226242d6e825d860adb2b10bd3b18a77f34d978fe4a","type":"nulldata"}},{"value":0E-8,"n":2,"scriptPubKey":{"asm":"OP_RETURN 434f524501608988097efc97679e3e2f5820ea81ff7ab5c85ae6d18fda214e5b9f350ffc7b6cf3058b9026e765","desc":"raw(6a2d434f524501608988097efc97679e3e2f5820ea81ff7ab5c85ae6d18fda214e5b9f350ffc7b6cf3058b9026e765)#yjkusu0d","hex":"6a2d434f524501608988097efc97679e3e2f5820ea81ff7ab5c85ae6d18fda214e5b9f350ffc7b6cf3058b9026e765","type":"nulldata"}},{"value":0E-8,"n":3,"scriptPubKey":{"asm":"OP_RETURN 52534b424c4f434b3afbacba9c73956f51ee65f2b928454602e29fd77c93c00a52f90abe1700801bd6","desc":"raw(6a2952534b424c4f434b3afbacba9c73956f51ee65f2b928454602e29fd77c93c00a52f90abe1700801bd6)#ldsgdth5","hex":"6a2952534b424c4f434b3afbacba9c73956f51ee65f2b928454602e29fd77c93c00a52f90abe1700801bd6","type":"nulldata"}}],"hex":"020000000001010000000000000000000000000000000000000000000000000000000000000000ffffffff5d03cf350e040a5f5e692f466f756e6472792055534120506f6f6c202364726f70676f6c642ffabe6d6d16f9cc4588d834f41fdefbc16e755ac60dfae164beea52be4e01397e344179b401000000000000001ce2878f0543010000000000ffffffff044277c612000000002200207086320071974eef5e72eaa01dd9096e10c0383483855ea6b344259c244f73c20000000000000000266a24aa21a9ed09cbb27317cffe35a1394226242d6e825d860adb2b10bd3b18a77f34d978fe4a00000000000000002f6a2d434f524501608988097efc97679e3e2f5820ea81ff7ab5c85ae6d18fda214e5b9f350ffc7b6cf3058b9026e76500000000000000002b6a2952534b424c4f434b3afbacba9c73956f51ee65f2b928454602e29fd77c93c00a52f90abe1700801bd60120000000000000000000000000000000000000000000000000000000000000000000000000"},{"txid":"42817bca63a2e1594f62db5306323159c6804f95a585981e07b013d77c4139dc","hash":"42817bca63a2e1594f62db5306323159c6804f95a585981e07b013d77c4139dc","version":1,"size":192,"vsize":192,"weight":768,"locktime":0,"vin":[{"txid":"7de181eb3e16e9086dcf349e5397066bd5300dbeedb512869b04ffec6be6bee6","vout":2,"scriptSig":{"asm":"3045022100a16c49816e862510bd86e29e23d2c8fa42db5e685c5cea1b0231ca598448657c02203a8c06253a4db590402ee785df6692b768583cb865bd956325fa66614ed21b39[ALL] 039a62c31d7c67dda106cf2b86967956590aecaad523fab97a1ac5df8d18786d73","hex":"483045022100a16c49816e862510bd86e29e23d2c8fa42db5e685c5cea1b0231ca598448657c02203a8c06253a4db590402ee785df6692b768583cb865bd956325fa66614ed21b390121039a62c31d7c67dda106cf2b86967956590aecaad523fab97a1ac5df8d18786d73"},"sequence":4294967295}],"vout":[{"value":0.0080698,"n":0,"scriptPubKey":{"asm":"OP_DUP OP_HASH160 df886ebdfddd2f3e1fefea99093e81ce5a8d3888 OP_EQUALVERIFY OP_CHECKSIG","desc":"addr(1MNw8HGYgFT7fsSVPxPSu2Mj7ruQJ82Ls4)#l9mrque7","hex":"76a914df886ebdfddd2f3e1fefea99093e81ce5a8d388888ac","address":"1MNw8HGYgFT7fsSVPxPSu2Mj7ruQJ82Ls4","type":"pubkeyhash"}}],"fee":0.0002,"hex":"0100000001e6bee66becff049b8612b5edbe0d30d56b0697539e34cf6d08e9163eeb81e17d020000006b483045022100a16c49816e862510bd86e29e23d2c8fa42db5e685c5cea1b0231ca598448657c02203a8c06253a4db590402ee785df6692b768583cb865bd956325fa66614ed21b390121039a62c31d7c67dda106cf2b86967956590aecaad523fab97a1ac5df8d18786d73ffffffff0144500c00000000001976a914df886ebdfddd2f3e1fefea99093e81ce5a8d388888ac00000000"},{"txid":"452c03dca73369faffdac84a14b9eb34f49aff33691b26c8a449335a9f5c74c9","hash":"2ea2fc63c92d6af465f0f5de6b764e6bcf6c21d716765914a0410e2e13fe88fe","version":2,"size":222,"vsize":141,"weight":561,"locktime":931278,"vin":[{"txid":"7320c65356983160af830359abf239a4995a1aa3683f269711004de922c5ef7b","vout":0,"scriptSig":{"asm":"","hex":""},"txinwitness":["304402200786a8e1f0ecb444345e4ef128123df9c412795b99c48711b48dad59a554b73a022076af0cbf73a2b10f47687f274c15ea08b9f77906a356d60a7409d92f841a8b7e01","026b65e0c317e7b62d976f3796ee064a158efa2d5079b702d4df727bd6081f82f0"],"sequence":4294967293}],"vout":[{"value":0.00041818,"n":0,"scriptPubKey":{"asm":"0 b82e0f35a1e497bdb6413e6b623248ddfa844661","desc":"addr(bc1qhqhq7ddpujtmmdjp8e4kyvjgmhagg3npzs934s)#sd9ua9dp","hex":"0014b82e0f35a1e497bdb6413e6b623248ddfa844661","address":"bc1qhqhq7ddpujtmmdjp8e4kyvjgmhagg3npzs934s","type":"witness_v0_keyhash"}},{"value":0.00104271,"n":1,"scriptPubKey":{"asm":"0 042c3c7bb187ba2d155556cf1be86e3a0b4487f2","desc":"addr(bc1qqskrc7a3s7az69242m83h6rw8g95fplj9xstew)#vd6e0e7z","hex":"0014042c3c7bb187ba2d155556cf1be86e3a0b4487f2","address":"bc1qqskrc7a3s7az69242m83h6rw8g95fplj9xstew","type":"witness_v0_keyhash"}}],"fee":0.000141,"hex":"020000000001017befc522e94d001197263f68a31a5a99a439f2ab590383af6031985653c620730000000000fdffffff025aa3000000000000160014b82e0f35a1e497bdb6413e6b623248ddfa8446614f97010000000000160014042c3c7bb187ba2d155556cf1be86e3a0b4487f20247304402200786a8e1f0ecb444345e4ef128123df9c412795b99c48711b48dad59a554b73a022076af0cbf73a2b10f47687f274c15ea08b9f77906a356d60a7409d92f841a8b7e0121026b65e0c317e7b62d976f3796ee064a158efa2d5079b702d4df727bd6081f82f0ce350e00"},{"txid":"04ca822099fcab0dafd41f8e0403f58b36adcf6fad2767c84612ac925c3db4ba","hash":"b325a7318bfb0c51b2d4af604d8c1574d0dce60512410913675368907c0cabce","version":2,"size":192,"vsize":110,"weight":438,"locktime":0,"vin":[{"txid":"d059f54820070bc833e35aa69b054b42ae9f0f019ae9dbeeb7793e9a2b718b9a","vout":0,"scriptSig":{"asm":"","hex":""},"txinwitness":["3045022100c7857171a0225db21a852fcd64700a0397490503b06361b4650836b3387a81fc02203a43e973ce462035ba4b4278f8aaccaece0369e327966c06fb742e3c30ca78eb01","03972e92d1c2f0749596701fd21980ffdd1bd3138dc3d497cb0fbd84fbd7671dfd"],"sequence":4294967295}],"vout":[{"value":0.00589296,"n":0,"scriptPubKey":{"asm":"0 f8c71c023653edbbd833740da4e6e5552fc13e72","desc":"addr(bc1qlrr3cq3k20kmhkpnwsx6feh925huz0njuz0whm)#ev08a2xm","hex":"0014f8c71c023653edbbd833740da4e6e5552fc13e72","address":"bc1qlrr3cq3k20kmhkpnwsx6feh925huz0njuz0whm","type":"witness_v0_keyhash"}}],"fee":0.0001028,"hex":"020000000001019a8b712b9a3e79b7eedbe99a010f9fae424b059ba65ae333c80b072048f559d00000000000ffffffff01f0fd080000000000160014f8c71c023653edbbd833740da4e6e5552fc13e7202483045022100c7857171a0225db21a852fcd64700a0397490503b06361b4650836b3387a81fc02203a43e973ce462035ba4b4278f8aaccaece0369e327966c06fb742e3c30ca78eb012103972e92d1c2f0749596701fd21980ffdd1bd3138dc3d497cb0fbd84fbd7671dfd00000000"},{"txid":"ce84482ce65fbdb06095276aec8329176efad90359094b1b48cb693852e2dd5e","hash":"a8a06ba9f36ce3ba636a8ab23c147d16acc51b26b02a99055a7afd3363bac7ea","version":2,"size":223,"vsize":142,"weight":565,"locktime":931278,"vin":[{"txid":"0724daff1c33569aadb6d967ae6457c0ce366f80b86da9814c3ec723d8f7b9ed","vout":0,"scriptSig":{"asm":"","hex":""},"txinwitness":["304402205a0161a7b4d11e0ec002a1fa658e98e9dfd61baf7bc81295a1fce7e6b43aad0b02200d299cdf64bbeb5e3658de9b6234fbda8b6caf626e60ea212da4e9530f3120a401","029cf36489440075a64d9ba15c30a313194bac862476b030805e6daf88cab07300"],"sequence":4294967293}],"vout":[{"value":0.01035787,"n":0,"scriptPubKey":{"asm":"OP_HASH160 9f49336bc58985e5e3e952a3f1ad6c25adf933f1 OP_EQUAL","desc":"addr(3GDF48VLu8JFnurq1iH5wmLVdUntwN8FMb)#auh08gtm","hex":"a9149f49336bc58985e5e3e952a3f1ad6c25adf933f187","address":"3GDF48VLu8JFnurq1iH5wmLVdUntwN8FMb","type":"scripthash"}},{"value":0.02174842,"n":1,"scriptPubKey":{"asm":"0 100d3dd18ee746e20987d0c6c041ca06865c7a04","desc":"addr(bc1qzqxnm5vwuarwyzv86rrvqsw2q6r9c7syentvzd)#s258rt93","hex":"0014100d3dd18ee746e20987d0c6c041ca06865c7a04","address":"bc1qzqxnm5vwuarwyzv86rrvqsw2q6r9c7syentvzd","type":"witness_v0_keyhash"}}],"fee":0.0000994,"hex":"02000000000101edb9f7d823c73e4c81a96db8806f36cec05764ae67d9b6ad9a56331cffda24070000000000fdffffff020bce0f000000000017a9149f49336bc58985e5e3e952a3f1ad6c25adf933f1877a2f210000000000160014100d3dd18ee746e20987d0c6c041ca06865c7a040247304402205a0161a7b4d11e0ec002a1fa658e98e9dfd61baf7bc81295a1fce7e6b43aad0b02200d299cdf64bbeb5e3658de9b6234fbda8b6caf626e60ea212da4e9530f3120a40121029cf36489440075a64d9ba15c30a313194bac862476b030805e6daf88cab07300ce350e00"}]},"id":"ad75fb4c-a5ef-4966-aee6-ef8d150e293e"}`
	BTCTransaction              = `{"jsonrpc":"2.0","result":{"txid":"17e4d102d6bd0ba114995efef2b8a4ae8bb2bdb8feca6d98d77bea88eb08275d","hash":"17e4d102d6bd0ba114995efef2b8a4ae8bb2bdb8feca6d98d77bea88eb08275d","version":2,"size":2553,"vsize":2553,"weight":10212,"locktime":931278,"vin":[{"txid":"bb7436aabaa11c0d543aaa5536e752b61dd6644ec0bd5d9b3c2ff61b06660410","vout":0,"scriptSig":{"asm":"30450221008e82fd4f0e6eff096e1bd382e14b6bb92a2898e4975f230db94c12a12f2e72c3022011140b5862b98a1401f6f9c85e2a25405553a7f7ada13e954caff08be0359a2b[ALL] 03d069cd5cd365db2484eb7ca52ab74255a439251c7c6966d0aa92cee6fe663e9a","hex":"4830450221008e82fd4f0e6eff096e1bd382e14b6bb92a2898e4975f230db94c12a12f2e72c3022011140b5862b98a1401f6f9c85e2a25405553a7f7ada13e954caff08be0359a2b012103d069cd5cd365db2484eb7ca52ab74255a439251c7c6966d0aa92cee6fe663e9a"},"sequence":4294967294},{"txid":"8875d4808f4e6b33729b6f2a939990bdc2796aacd2b0a4efd4899978dbcc8912","vout":0,"scriptSig":{"asm":"304502210082fb45620109313e58e4a1182e3c98633af89ab2508d357a29d0274824fc798402206a38d76376f583dff926449b6aeadf5144aa8910c1b28da8471dd7441820f298[ALL] 0397ff01287a22dfd2c09f84d5d8b60f77ade189d654897f8094acb727bc1c8355","hex":"48304502210082fb45620109313e58e4a1182e3c98633af89ab2508d357a29d0274824fc798402206a38d76376f583dff926449b6aeadf5144aa8910c1b28da8471dd7441820f29801210397ff01287a22dfd2c09f84d5d8b60f77ade189d654897f8094acb727bc1c8355"},"sequence":4294967294},{"txid":"7c3db91a20a5d59965852ab1c19f114695f3e15738377c016edb1dec847a0717","vout":0,"scriptSig":{"asm":"3045022100de72d164e8d5ba1ac80dde23b4ca9acf962847943c23a34346c714f4db3298c602201c06bda7ec857143d8b4334b88d1c9065bb55316156b02499d8139e22c047863[ALL] 02900c175cfbf0e7fdf39fef6e69c0de577fb2b8eb3731277793696be8d3f9d3a3","hex":"483045022100de72d164e8d5ba1ac80dde23b4ca9acf962847943c23a34346c714f4db3298c602201c06bda7ec857143d8b4334b88d1c9065bb55316156b02499d8139e22c047863012102900c175cfbf0e7fdf39fef6e69c0de577fb2b8eb3731277793696be8d3f9d3a3"},"sequence":4294967294},{"txid":"574a7caada6a1d82dc1274f43f38583aa8f38c47a0b591a4953eb35900655123","vout":1,"scriptSig":{"asm":"3045022100ccf05557163623a26c4f4f59e714e919e6e66b74f060b397a8f0a3dc7c04d68e022013f6fd30086077a18916fe93e98f021341a0dd51403121ed9022932221fd1a38[ALL] 0260ba2c77b5cf185a51b27e37850cfacae29c134256c23b8907afad4abbbb337c","hex":"483045022100ccf05557163623a26c4f4f59e714e919e6e66b74f060b397a8f0a3dc7c04d68e022013f6fd30086077a18916fe93e98f021341a0dd51403121ed9022932221fd1a3801210260ba2c77b5cf185a51b27e37850cfacae29c134256c23b8907afad4abbbb337c"},"sequence":4294967294},{"txid":"ab766686f098bdc80d14cfe687dc99a33c2f598bfaf2373ca5b967d709176c36","vout":6,"scriptSig":{"asm":"3045022100ca6010493acd23bdb20cea1a66d349a0eee0bfa9961a8f5d7213450c0b2f7e1602200affee3af3ef9269c7af08a89ea06d2ecbf0d984b3dd76399d6876c52184fcde[ALL] 02f0eb1bb72b78ef58da67e89a1f1afe4fc8557064c70613c54bde2970716f08bc","hex":"483045022100ca6010493acd23bdb20cea1a66d349a0eee0bfa9961a8f5d7213450c0b2f7e1602200affee3af3ef9269c7af08a89ea06d2ecbf0d984b3dd76399d6876c52184fcde012102f0eb1bb72b78ef58da67e89a1f1afe4fc8557064c70613c54bde2970716f08bc"},"sequence":4294967294},{"txid":"0bd9e9bc009433f24dfa86f9db0b50ee6b16b81576eaf7b5f2a579e537b9704a","vout":1,"scriptSig":{"asm":"3045022100eb5575177d218f89b41aefc70083554c3e54827a98c16b438f6fa553b1390ec7022037eaf0663b0f13a8f8cf8646fb93f834994fd96f788e10f390f888f3d4b2e4fd[ALL] 02b8737cd4fc2119961969afe73be425d6db2011f1e0e5abc58c55039169d4ce73","hex":"483045022100eb5575177d218f89b41aefc70083554c3e54827a98c16b438f6fa553b1390ec7022037eaf0663b0f13a8f8cf8646fb93f834994fd96f788e10f390f888f3d4b2e4fd012102b8737cd4fc2119961969afe73be425d6db2011f1e0e5abc58c55039169d4ce73"},"sequence":4294967294},{"txid":"72a4c80b835c1f345a54880f2e056c733bae514dc3e6e76b3c802c4150522e57","vout":104,"scriptSig":{"asm":"304402207631655358603825932f111f1a621429809ce3e8cac1ee3889faa9dbfa8d193902201adbd12c63249dc7ea2b8e07943cf0f0b05f2c879f7bafe260f754e3eb3375a3[ALL] 039884999d61adcf10ec2c0d195ceb42e33380365c10232965002d1640f09c2f81","hex":"47304402207631655358603825932f111f1a621429809ce3e8cac1ee3889faa9dbfa8d193902201adbd12c63249dc7ea2b8e07943cf0f0b05f2c879f7bafe260f754e3eb3375a30121039884999d61adcf10ec2c0d195ceb42e33380365c10232965002d1640f09c2f81"},"sequence":4294967294},{"txid":"679a69c378b96ded87071634e1cc1ef11fd6aaa7915d7dd531b31aa251722771","vout":7,"scriptSig":{"asm":"3045022100820342d01f3adfd34dd0c57fe6ca861009f0a0865acea01ea6c0c2eb932a9eec022055c8b012cb29606691a883d524dc8704613aa4926c04d8022168ed138fb8d98e[ALL] 02424a215e0a678dfbcaf1a96e01b1a6beabb0a6676abeb49243359989f07bcfb9","hex":"483045022100820342d01f3adfd34dd0c57fe6ca861009f0a0865acea01ea6c0c2eb932a9eec022055c8b012cb29606691a883d524dc8704613aa4926c04d8022168ed138fb8d98e012102424a215e0a678dfbcaf1a96e01b1a6beabb0a6676abeb49243359989f07bcfb9"},"sequence":4294967294},{"txid":"0aae04ab2ef50e81ced4c35323d44ff7e1de5484b8a6cdc56e81a9afe606ae72","vout":0,"scriptSig":{"asm":"304402205ade8e53dc2bcbaab42501452f04eec281b1fd26dc9323d8053cec97262b037e02207eec7bb189e7ad1ab78918f3be59cadea386845f81fd18935af54c8cdad6f21f[ALL] 0254b9d6683d5f447f5524aa52cdbe6b3a81c56ca3d1ed20ba32c2abcc5915e75d","hex":"47304402205ade8e53dc2bcbaab42501452f04eec281b1fd26dc9323d8053cec97262b037e02207eec7bb189e7ad1ab78918f3be59cadea386845f81fd18935af54c8cdad6f21f01210254b9d6683d5f447f5524aa52cdbe6b3a81c56ca3d1ed20ba32c2abcc5915e75d"},"sequence":4294967294},{"txid":"2d53cc5829c750ee8fa7430d7719717099b519dd2cdd47a8c4dea28043e3247a","vout":22,"scriptSig":{"asm":"3045022100be8544726c0369786b45cbb7001ac322272f628bf886c00f33abfbcbf9b6d669022036e2f6634c609fe0ee2ac1c9a78e38463094a0ca1d1987c97603063932f476e3[ALL] 03624637f9b43b942e618d768cbba99271616b25ade2a1b1c6c4193c5142952440","hex":"483045022100be8544726c0369786b45cbb7001ac322272f628bf886c00f33abfbcbf9b6d669022036e2f6634c609fe0ee2ac1c9a78e38463094a0ca1d1987c97603063932f476e3012103624637f9b43b942e618d768cbba99271616b25ade2a1b1c6c4193c5142952440"},"sequence":4294967294},{"txid":"6bbcc73738fb5e0e4538f0747d81667a55d656436058b8482d9587af79b5c07d","vout":12,"scriptSig":{"asm":"3045022100ee6e802ded2d99b0b7150e250b81f4134bc16cc28572a78bd6f28f7b97fcdb7602207849d3fa5dd75aa87e29a3f0f1ede0952fd6b83c6b018ff0bf54f623dc6fcc85[ALL] 025f4975fd72247dc96b67c83d79e065f3146460e759357e851402e4a927da9741","hex":"483045022100ee6e802ded2d99b0b7150e250b81f4134bc16cc28572a78bd6f28f7b97fcdb7602207849d3fa5dd75aa87e29a3f0f1ede0952fd6b83c6b018ff0bf54f623dc6fcc850121025f4975fd72247dc96b67c83d79e065f3146460e759357e851402e4a927da9741"},"sequence":4294967294},{"txid":"035c91ebc248c5d367b17070576480a33b022494950e5e067dec388390ba319e","vout":1,"scriptSig":{"asm":"3045022100803a828c00a372948b5cc30121f02e5b4696816e6089f665a8e1557a5d595b2802206524a45e3d6b25f1d0f2fd88067163be126d29c1abb5e7eb4bf634728f95a055[ALL] 0220e0fcef04fb8ef865fc4614a8e4862d5a3804ad6cf1433601caccc1dccf6f92","hex":"483045022100803a828c00a372948b5cc30121f02e5b4696816e6089f665a8e1557a5d595b2802206524a45e3d6b25f1d0f2fd88067163be126d29c1abb5e7eb4bf634728f95a05501210220e0fcef04fb8ef865fc4614a8e4862d5a3804ad6cf1433601caccc1dccf6f92"},"sequence":4294967294},{"txid":"af7dcb63ca586badf4e200d22cdbbf1e87062775d551021f7978623d1bb722b6","vout":0,"scriptSig":{"asm":"30440220667a0a682ea9b0aa65ec5e993f8d998d1f17e162e3f509f5ebb6abf5724418650220403326c2468317d8574822952249263d38c833b0f20ec1d435d88c527154a73b[ALL] 0351bb936075b26d2f7f5df286dbbbfb64d72ddf438e344719cd9a7890995ace2b","hex":"4730440220667a0a682ea9b0aa65ec5e993f8d998d1f17e162e3f509f5ebb6abf5724418650220403326c2468317d8574822952249263d38c833b0f20ec1d435d88c527154a73b01210351bb936075b26d2f7f5df286dbbbfb64d72ddf438e344719cd9a7890995ace2b"},"sequence":4294967294},{"txid":"7df6fe5f46b7924b5ccc136a57841d030ee2f7be2a2af305696e38679150a1b9","vout":0,"scriptSig":{"asm":"3045022100cf7b45edc087bdef0b0ec33da447ca28a4315b02a3683eec2b47fcd58827410f022032bb3b40cc7b63e55499e810ca4e0fe69163651bdea5acfe26404549dcafa11f[ALL] 031f90416e63583678c1ec0e466053c46df9a39874e7cedc859eb81bdf28b652a1","hex":"483045022100cf7b45edc087bdef0b0ec33da447ca28a4315b02a3683eec2b47fcd58827410f022032bb3b40cc7b63e55499e810ca4e0fe69163651bdea5acfe26404549dcafa11f0121031f90416e63583678c1ec0e466053c46df9a39874e7cedc859eb81bdf28b652a1"},"sequence":4294967294},{"txid":"a9a99305e9cc675d6cc1836032f0aef517f86bbd1ebc2ecc994ccd8ab72687c7","vout":1,"scriptSig":{"asm":"3045022100b9fb78017df6341c28e3b4df8fa4f4a832bdc96d0547e9edfd1648c988e12c3c0220797c5b22916780073c900ad4d04a53cf11b18e384b3edf4e467d669f31991bc3[ALL] 02900c175cfbf0e7fdf39fef6e69c0de577fb2b8eb3731277793696be8d3f9d3a3","hex":"483045022100b9fb78017df6341c28e3b4df8fa4f4a832bdc96d0547e9edfd1648c988e12c3c0220797c5b22916780073c900ad4d04a53cf11b18e384b3edf4e467d669f31991bc3012102900c175cfbf0e7fdf39fef6e69c0de577fb2b8eb3731277793696be8d3f9d3a3"},"sequence":4294967294},{"txid":"7873a7e31a709a74c7633e14aff6651b22a7f102e57d7549a4cf46f0c580bbd1","vout":0,"scriptSig":{"asm":"3045022100f6a4d804cb217c96d12e431b3e1f69ac4fcd8bd60bcfd08b128bb7b774a8c4ea022005fc1ee4be89a5dc6e707ad29e1c6d4dc2da8ed43bc1de8c86c274b61cb53c60[ALL] 031698e3947fc21fc3f65ef6e653e83f2a3a816742ffefc2dc1416d6132663313e","hex":"483045022100f6a4d804cb217c96d12e431b3e1f69ac4fcd8bd60bcfd08b128bb7b774a8c4ea022005fc1ee4be89a5dc6e707ad29e1c6d4dc2da8ed43bc1de8c86c274b61cb53c600121031698e3947fc21fc3f65ef6e653e83f2a3a816742ffefc2dc1416d6132663313e"},"sequence":4294967294},{"txid":"35531316fae7093b11bf7b46109c9e002d6b9db633a3f721673aa16d3492d0f0","vout":0,"scriptSig":{"asm":"3044022067c139b49dd5f6e0d64752aa944d1af8ba9502f045a766b4d2bb36a3e3884f7b022074d6aba0e758ef9edd6cbbf90323ca45c5b741eccf6b571f8d53a38719772766[ALL] 02900c175cfbf0e7fdf39fef6e69c0de577fb2b8eb3731277793696be8d3f9d3a3","hex":"473044022067c139b49dd5f6e0d64752aa944d1af8ba9502f045a766b4d2bb36a3e3884f7b022074d6aba0e758ef9edd6cbbf90323ca45c5b741eccf6b571f8d53a38719772766012102900c175cfbf0e7fdf39fef6e69c0de577fb2b8eb3731277793696be8d3f9d3a3"},"sequence":4294967294}],"vout":[{"value":0.00634194,"n":0,"scriptPubKey":{"asm":"0 8bf44da8452d5809b236273af21be08a05b0661f","desc":"addr(bc1q306ym2z994vqnv3kyua0yxlq3gzmqeslmnjsh3)#tp3p287k","hex":"00148bf44da8452d5809b236273af21be08a05b0661f","address":"bc1q306ym2z994vqnv3kyua0yxlq3gzmqeslmnjsh3","type":"witness_v0_keyhash"}}],"hex":"0200000011100466061bf62f3c9b5dbdc04e64d61db652e73655aa3a540d1ca1baaa3674bb000000006b4830450221008e82fd4f0e6eff096e1bd382e14b6bb92a2898e4975f230db94c12a12f2e72c3022011140b5862b98a1401f6f9c85e2a25405553a7f7ada13e954caff08be0359a2b012103d069cd5cd365db2484eb7ca52ab74255a439251c7c6966d0aa92cee6fe663e9afeffffff1289ccdb789989d4efa4b0d2ac6a79c2bd9099932a6f9b72336b4e8f80d47588000000006b48304502210082fb45620109313e58e4a1182e3c98633af89ab2508d357a29d0274824fc798402206a38d76376f583dff926449b6aeadf5144aa8910c1b28da8471dd7441820f29801210397ff01287a22dfd2c09f84d5d8b60f77ade189d654897f8094acb727bc1c8355feffffff17077a84ec1ddb6e017c373857e1f39546119fc1b12a856599d5a5201ab93d7c000000006b483045022100de72d164e8d5ba1ac80dde23b4ca9acf962847943c23a34346c714f4db3298c602201c06bda7ec857143d8b4334b88d1c9065bb55316156b02499d8139e22c047863012102900c175cfbf0e7fdf39fef6e69c0de577fb2b8eb3731277793696be8d3f9d3a3feffffff2351650059b33e95a491b5a0478cf3a83a58383ff47412dc821d6adaaa7c4a57010000006b483045022100ccf05557163623a26c4f4f59e714e919e6e66b74f060b397a8f0a3dc7c04d68e022013f6fd30086077a18916fe93e98f021341a0dd51403121ed9022932221fd1a3801210260ba2c77b5cf185a51b27e37850cfacae29c134256c23b8907afad4abbbb337cfeffffff366c1709d767b9a53c37f2fa8b592f3ca399dc87e6cf140dc8bd98f0866676ab060000006b483045022100ca6010493acd23bdb20cea1a66d349a0eee0bfa9961a8f5d7213450c0b2f7e1602200affee3af3ef9269c7af08a89ea06d2ecbf0d984b3dd76399d6876c52184fcde012102f0eb1bb72b78ef58da67e89a1f1afe4fc8557064c70613c54bde2970716f08bcfeffffff4a70b937e579a5f2b5f7ea7615b8166bee500bdbf986fa4df2339400bce9d90b010000006b483045022100eb5575177d218f89b41aefc70083554c3e54827a98c16b438f6fa553b1390ec7022037eaf0663b0f13a8f8cf8646fb93f834994fd96f788e10f390f888f3d4b2e4fd012102b8737cd4fc2119961969afe73be425d6db2011f1e0e5abc58c55039169d4ce73feffffff572e5250412c803c6be7e6c34d51ae3b736c052e0f88545a341f5c830bc8a472680000006a47304402207631655358603825932f111f1a621429809ce3e8cac1ee3889faa9dbfa8d193902201adbd12c63249dc7ea2b8e07943cf0f0b05f2c879f7bafe260f754e3eb3375a30121039884999d61adcf10ec2c0d195ceb42e33380365c10232965002d1640f09c2f81feffffff71277251a21ab331d57d5d91a7aad61ff11ecce134160787ed6db978c3699a67070000006b483045022100820342d01f3adfd34dd0c57fe6ca861009f0a0865acea01ea6c0c2eb932a9eec022055c8b012cb29606691a883d524dc8704613aa4926c04d8022168ed138fb8d98e012102424a215e0a678dfbcaf1a96e01b1a6beabb0a6676abeb49243359989f07bcfb9feffffff72ae06e6afa9816ec5cda6b88454dee1f74fd42353c3d4ce810ef52eab04ae0a000000006a47304402205ade8e53dc2bcbaab42501452f04eec281b1fd26dc9323d8053cec97262b037e02207eec7bb189e7ad1ab78918f3be59cadea386845f81fd18935af54c8cdad6f21f01210254b9d6683d5f447f5524aa52cdbe6b3a81c56ca3d1ed20ba32c2abcc5915e75dfeffffff7a24e34380a2dec4a847dd2cdd19b599707119770d43a78fee50c72958cc532d160000006b483045022100be8544726c0369786b45cbb7001ac322272f628bf886c00f33abfbcbf9b6d669022036e2f6634c609fe0ee2ac1c9a78e38463094a0ca1d1987c97603063932f476e3012103624637f9b43b942e618d768cbba99271616b25ade2a1b1c6c4193c5142952440feffffff7dc0b579af87952d48b858604356d6557a66817d74f038450e5efb3837c7bc6b0c0000006b483045022100ee6e802ded2d99b0b7150e250b81f4134bc16cc28572a78bd6f28f7b97fcdb7602207849d3fa5dd75aa87e29a3f0f1ede0952fd6b83c6b018ff0bf54f623dc6fcc850121025f4975fd72247dc96b67c83d79e065f3146460e759357e851402e4a927da9741feffffff9e31ba908338ec7d065e0e959424023ba38064577070b167d3c548c2eb915c03010000006b483045022100803a828c00a372948b5cc30121f02e5b4696816e6089f665a8e1557a5d595b2802206524a45e3d6b25f1d0f2fd88067163be126d29c1abb5e7eb4bf634728f95a05501210220e0fcef04fb8ef865fc4614a8e4862d5a3804ad6cf1433601caccc1dccf6f92feffffffb622b71b3d6278791f0251d5752706871ebfdb2cd200e2f4ad6b58ca63cb7daf000000006a4730440220667a0a682ea9b0aa65ec5e993f8d998d1f17e162e3f509f5ebb6abf5724418650220403326c2468317d8574822952249263d38c833b0f20ec1d435d88c527154a73b01210351bb936075b26d2f7f5df286dbbbfb64d72ddf438e344719cd9a7890995ace2bfeffffffb9a1509167386e6905f32a2abef7e20e031d84576a13cc5c4b92b7465ffef67d000000006b483045022100cf7b45edc087bdef0b0ec33da447ca28a4315b02a3683eec2b47fcd58827410f022032bb3b40cc7b63e55499e810ca4e0fe69163651bdea5acfe26404549dcafa11f0121031f90416e63583678c1ec0e466053c46df9a39874e7cedc859eb81bdf28b652a1feffffffc78726b78acd4c99cc2ebc1ebd6bf817f5aef0326083c16c5d67cce90593a9a9010000006b483045022100b9fb78017df6341c28e3b4df8fa4f4a832bdc96d0547e9edfd1648c988e12c3c0220797c5b22916780073c900ad4d04a53cf11b18e384b3edf4e467d669f31991bc3012102900c175cfbf0e7fdf39fef6e69c0de577fb2b8eb3731277793696be8d3f9d3a3feffffffd1bb80c5f046cfa449757de502f1a7221b65f6af143e63c7749a701ae3a77378000000006b483045022100f6a4d804cb217c96d12e431b3e1f69ac4fcd8bd60bcfd08b128bb7b774a8c4ea022005fc1ee4be89a5dc6e707ad29e1c6d4dc2da8ed43bc1de8c86c274b61cb53c600121031698e3947fc21fc3f65ef6e653e83f2a3a816742ffefc2dc1416d6132663313efefffffff0d092346da13a6721f7a333b69d6b2d009e9c10467bbf113b09e7fa16135335000000006a473044022067c139b49dd5f6e0d64752aa944d1af8ba9502f045a766b4d2bb36a3e3884f7b022074d6aba0e758ef9edd6cbbf90323ca45c5b741eccf6b571f8d53a38719772766012102900c175cfbf0e7fdf39fef6e69c0de577fb2b8eb3731277793696be8d3f9d3a3feffffff0152ad0900000000001600148bf44da8452d5809b236273af21be08a05b0661fce350e00","blockhash":"00000000000000000000845c14e9d41056cf37f2984c686fe0b7beb1b8e5c0c4","confirmations":1,"time":1767792394,"blocktime":1767792394},"id":"73fa3871-6972-402d-a4da-73bc9abc27ea"}`
	BTCMempool                  = `{"jsonrpc":"2.0","result":["abbe34887904e40479c9350c54194239cfe22b5eb4abdbb2b911bc1cd39c9276","d57bc33f94cb345acc4ba2dcca51c8e418c4a3137672fb914cedad80be830b32","ff524d30dadf9f080b12b1be78200eb693d95f2d2115683011ce684734c00207","bca5753014f71fee283f8aa1b45a08c9120aed260168408572dc6735aa99bc87","79d2c57f34512c009cd81259ae18ff7bad4869cc23041af777f3ceb039ec42b3","1f0a0af01604b672a81b1f58fd5a39a217579f134986d76f8dd2f9903e9ea388","a701b2995966e97e487a1f13af6b6251e57124152de8d790f0c8ab068bd5f1cd","23221e1b8cc85876370004bb3f65a3f4169b92d9a07e9dad0f926f33456641d4","2438baac885321332ccec97f82e36993336814433eaa309f31e5de676c745314","8e6cc0e36787cb5429674cd9c820511729b301e6484b5f937b74fef9f8f31fbe","88ca1f37cedbe2acb7ade3265a40d4c0d9b69737a9b2fca545c7959216a9517a","d75e38f8026864877877e246422d6ba3b4b705cde4f92d574226816a962a893c","b2c3abdaa95f190f675e44cde84f0c1a6dd06101ad120f08f12efda4c18f45d6"],"id":"7ec58aa9-79e9-48e2-8acf-de8a7963f4e3"}`

	BTCBlockHash   = `00000000000000000000845c14e9d41056cf37f2984c686fe0b7beb1b8e5c0c4`
	BTCBlockHeight = 931279

	BTCTxID = `17e4d102d6bd0ba114995efef2b8a4ae8bb2bdb8feca6d98d77bea88eb08275d`
)
